:020000002928AD
:0E0006008312031331088A00300882000800BC
:1000140003208A110A128000840AB00A0319B10A63
:08002400F003031D0A28080087
:10002C0083120313870188010B30FB002630FC0080
:10003C005D30FD00FD0B2028FC0B2028FB0B20283D
:06004C00000000000800A6
:10005200803083120313A0004030A1002030A200A0
:100062001030A3000830A4000430A5000230A6001E
:100072000130A700A8017F30A900FF30AA00CC30D0
:10008200AB00CC30AC00FF30AD007F30AE00AF0132
:100092008316870188010614831206188928162000
:1000A2000130B4000030B5008030F00080303506F9
:1000B2007002031D5E283408643C031C8928B201C7
:1000C200B30180303306F00080307002031D6B28CC
:1000D20008303202031885283208203E84000008C6
:1000E20088003208283E8400000887000330FC00A4
:1000F2009730FD00FD0B7B28FC0B7B2800000000E5
:10010200B20A0319B30A6228B40A0319B50A5528B8
:040112004D288A28C2
:02400E004A2F37
:00000001FF
